:100000000C9463000C948B000C948B000C94BC0734
:100010000C94BC070C94BC070C948B000C948B00C4
:100020000C948B000C948B000C948B000C948B0024
:100030000C948B000C948B000C948B000C948B0014
:100040000C9472070C948B000C9440070C941A07C4
:100050000C948B000C948B000C948B000C948B00F4
:100060000C948B000C948B000000000024002700EF
:100070002A0000000008000201000003040700003D
:1000800000000000000000000000230026002900FE
:1000900000000000250028002B00040404040404D0
:1000A0000404020202020202030303030303010227
:1000B00004081020408001020408102001020408F6
:1000C00010203408FD0B11241FBECFEFD8E0DEBF97
:1000D000CDBF22E0A0E5B1E001C01D92A937B20773
:1000E000E1F711E0A0E0B1E0EEE4FDE102C005902F
:1000F0000D92A035B107D9F710E0C2E6D0E004C0F8
:100100002197FE010E94A20CC136D107C9F70E94B7
:10011000DF080C949A0E0C940000AF92BF92CF921D
:10012000DF92EF92FF920F931F93CF93DF936C01B7
:100130007B018B01040F151FEB015E01AE18BF0898
:10014000C017D10759F06991D601ED91FC9101904A
:10015000F081E02DC6010995892B79F7C501DF9162
:10016000CF911F910F91FF90EF90DF90CF90BF90B4
:10017000AF900895FC01448155816081718186E5CD
:1001800092E00C948D00FC01538D448D252F30E0BE
:10019000842F90E0821B930B541710F0CF96089594
:1001A00001970895FC01918D828D981761F0A28DC1
:1001B000AE0FBF2FB11D5D968C91928D9F5F9F7387
:1001C000928F90E008958FEF9FEF0895FC01918D3D
:1001D000828D981731F0828DE80FF11D858D90E0AA
:1001E00008958FEF9FEF0895FC01918D228D892F47
:1001F00090E0805C9F4F821B91098F73992708952F
:1002000089EB91E00E94F40021E0892B09F420E0C1
:10021000822F089580E090E0892B29F00E94000150
:1002200081110C9400000895FC01A48DA80FB92F32
:10023000B11DA35ABF4F2C91848D90E001968F730E
:100240009927848FA689B7892C93A089B1898C912D
:10025000837080648C93938D848D981306C002887C
:10026000F389E02D80818F7D80830895EF92FF9246
:100270000F931F93CF93DF93EC0181E0888F9B8DC9
:100280008C8D98131AC0E889F989808185FF15C083
:100290009FB7F894EE89FF896083E889F9898081A6
:1002A0008370806480839FBF81E090E0DF91CF9175
:1002B0001F910F91FF90EF900895F62E0B8D10E097
:1002C0000F5F1F4F0F731127E02E8C8D8E110CC006
:1002D0000FB607FCFACFE889F989808185FFF5CF51
:1002E000CE010E941401F1CFEB8DEC0FFD2FF11D1B
:1002F000E35AFF4FF0829FB7F8940B8FEA89FB898E
:1003000080818062CFCFCF93DF93EC01888D8823EB
:10031000B9F0AA89BB89E889F9898C9185FD03C068
:10032000808186FD0DC00FB607FCF7CF8C9185FF4D
:10033000F2CF808185FFEDCFCE010E941401E9CF7D
:10034000DF91CF910895833081F028F4813099F0C6
:100350008230A9F008958730A9F08830C9F0843040
:10036000B1F4809180008F7D03C0809180008F77F1
:1003700080938000089584B58F7784BD089584B5F7
:100380008F7DFBCF8091B0008F778093B000089570
:100390008091B0008F7DF9CFCF93DF93282F30E08D
:1003A000F901EE58FF4F8491F901E255FF4FD491C6
:1003B000F901E656FF4FC491CC23A1F081110E94B0
:1003C000A301EC2FF0E0EE0FFF1FEA57FF4FA591BE
:1003D000B491EC91ED2381E090E009F480E0DF91AD
:1003E000CF91089580E090E0FACF1F93CF93DF93F1
:1003F000282F30E0F901EE58FF4F8491F901E255C2
:10040000FF4FD491F901E656FF4FC491CC23A9F0D8
:10041000162F81110E94A301EC2FF0E0EE0FFF1FB9
:10042000E057FF4FA591B4918FB7F894EC9111115B
:1004300008C0D095DE23DC938FBFDF91CF911F9151
:100440000895DE2BF8CFCF93DF9390E0FC01E255C7
:10045000FF4F249186569F4FFC0184918823D1F051
:1004600090E0880F991FFC01E859FF4FA591B491C6
:10047000FC01E057FF4FC591D49161110EC09FB7A9
:10048000F8948C91E22FE0958E238C932881E223BF
:10049000E8839FBFDF91CF9108958FB7F894EC91D7
:1004A000E22BEC938FBFF6CF806480937C00809129
:1004B0007A00806480937A0080917A0086FDFCCF78
:1004C000809178009091790008953FB7F8948091D9
:1004D000950190919601A0919701B091980126B550
:1004E000A89B05C02F3F19F00196A11DB11D3FBF6C
:1004F000BA2FA92F982F8827BC01CD01620F711D3B
:10050000811D911D42E0660F771F881F991F4A9534
:10051000D1F708958F929F92AF92BF92CF92DF92C0
:10052000EF92FF924B015C010E9465026B017C011E
:100530000E9465026C197D098E099F09683E73400F
:1005400081059105A8F321E0821A9108A108B1085C
:1005500088EEC80E83E0D81EE11CF11C81149104C2
:10056000A104B10429F7FF90EF90DF90CF90BF90E6
:10057000AF909F908F90089520919B0130919C01A6
:100580002817390771F49091990180919A01981771
:1005900041F0E0919901F0E0E05BFE4F808190E056
:1005A00008958FEF9FEF08950895EF92FF920F93B4
:1005B0001F93CF93DF93DC015C96ED90FC905D97E9
:1005C000E114F10479F481E090E013969C938E930A
:1005D000129790E080E0DF91CF911F910F91FF90F3
:1005E000EF9008955196ED91FC91529750968C9111
:1005F0005097982F90950FB75E962C915E97122F7B
:10060000127021FD6095F8942081112319F1282B97
:100610002083E7012197F1F728E0462F50E0308151
:1006200060FF1AC0382B3083E7012197F1F7BA0138
:1006300075956795215089F7112381F08081892371
:1006400080830FBF5C968D919C910197F1F781E0BB
:1006500090E0C1CF2923DCCF3923E5CF9081892BCE
:10066000EFCF20919B0130919C012817390771F43D
:1006700080919A012091990190E0805C9F4F821BAC
:10068000910960E470E00E947A0C089590E080E0A7
:10069000089520919B0130919C0128173907B9F4E6
:1006A0009091990180919A01981789F0E0919901B0
:1006B000F0E0E05BFE4F80812091990130E02F5FF8
:1006C0003F4F2F7333272093990190E008958FEFC8
:1006D0009FEF089590E080E00895FB0101900020D5
:1006E000E9F73197AF01461B570BDC01ED91FC9107
:1006F0000280F381E02D09940F931F93CF93DF9332
:10070000EC0188819981009759F02A813B81261755
:10071000370730F081E0DF91CF911F910F9108955D
:100720008B016F5F7F4F0E94CD0D009759F0998329
:1007300088831B830A832C813D81232B59F7FC017D
:100740001082E8CF80E0E7CFCF93DF93EC01888180
:100750009981009711F00E94440D198218821D8220
:100760001C821B821A82DF91CF910895CF92DF9273
:10077000EF92FF920F931F93CF93DF93CDB7DEB726
:1007800029970FB6F894DEBF0FBECDBF8C01862F20
:10079000F80111821082138212821582148240E1C4
:1007A0009E012F5F3F4F6901B90190E00E94190C33
:1007B000F60101900020E9F731977F01EC18FD0860
:1007C000B701C8010E947C03811112C0C8010E94B8
:1007D000A40329960FB6F894DEBF0FBECDBFDF91FC
:1007E000CF911F910F91FF90EF90DF90CF900895E0
:1007F000F801F582E482B601808191810E94930E16
:10080000E8CFCF93DF93EC01198218821B821A8202
:100810001D821C8261E070E00E947C03811105C092
:10082000CE01DF91CF910C94A40381E090E09D83F1
:100830008C836CE271E088819981DF91CF910C9477
:10084000930EEF92FF920F931F93CF93DF93EC01E0
:10085000FB01E080F180E114F10411F104811581C4
:1008600001151105A9F08C819D81080F191FB80190
:10087000CE010E947C03882399F0288139818C81E4
:100880009D81B701820F931F0E94930E1D830C83DD
:10089000CE01DF91CF911F910F91FF90EF900895BE
:1008A000CE010E94A403F4CFFC01808191810097C6
:1008B00011F00C94440D0895CF93DF93CDB7DEB7BC
:1008C0002C970FB6F894DEBF0FBECDBF6EE271E07D
:1008D00086E592E00E946D0366E2CE0101960E94D9
:1008E000B603CE0101960E94BA00CE0101960E9485
:1008F000540468EACE0101960E94B603CE01019627
:100900000E94BA00CE0101960E94540464E1CE0117
:1009100001960E94B603CE0101960E94BA00CE0154
:1009200001960E94540461EBCE0101960E94B60329
:10093000CE0101960E94BA00CE0101960E94540495
:1009400064E1CE0101960E94B603CE0101960E9499
:10095000BA00CE0101960E94540460919E01CE011E
:10096000603108F0D1C107960E94B603CE0101960E
:100970000E940104BE01695F7F4FCE0101960E9473
:1009800021040E94BA00CE0101960E945404CE01B7
:1009900007960E94540460919F01CE01603108F0D7
:1009A000BDC107960E94B603CE0101960E940104C4
:1009B000BE01695F7F4FCE0101960E9421040E9413
:1009C000BA00CE0101960E945404CE0107960E94FF
:1009D00054046091A001CE01603108F0A9C10796CE
:1009E0000E94B603CE0101960E940104BE01695F18
:1009F0007F4FCE0101960E9421040E94BA00CE01D1
:100A000001960E945404CE0107960E9454046091FE
:100A1000A101CE01603108F095C107960E94B6038E
:100A2000CE0101960E940104BE01695F7F4FCE0195
:100A300001960E9421040E94BA00CE0101960E94F4
:100A40005404CE0107960E9454046091A201CE0185
:100A5000603108F081C107960E94B603CE0101966D
:100A60000E940104BE01695F7F4FCE0101960E9482
:100A700021040E94BA00CE0101960E945404CE01C6
:100A800007960E9454046091A301CE01603108F0E2
:100A90006DC107960E94B603CE0101960E94010423
:100AA000BE01695F7F4FCE0101960E9421040E9422
:100AB000BA00CE0101960E945404CE0107960E940E
:100AC00054046091A401CE01603108F059C1079629
:100AD0000E94B603CE0101960E940104BE01695F27
:100AE0007F4FCE0101960E9421040E94BA00CE01E0
:100AF00001960E945404CE0107960E94540460910E
:100B0000A501CE01603108F045C107960E94B603E9
:100B1000CE0101960E940104BE01695F7F4FCE01A4
:100B200001960E9421040E94BA00CE0101960E9403
:100B30005404CE0107960E9454046091A601CE0190
:100B4000603108F031C107960E94B603CE010196CC
:100B50000E940104BE01695F7F4FCE0101960E9491
:100B600021040E94BA00CE0101960E945404CE01D5
:100B700007960E9454046091A701CE01603108F0ED
:100B80001DC107960E94B603CE0101960E94010482
:100B9000BE01695F7F4FCE0101960E9421040E9431
:100BA000BA00CE0101960E945404CE0107960E941D
:100BB00054046091A801CE01603108F009C1079684
:100BC0000E94B603CE0101960E940104BE01695F36
:100BD0007F4FCE0101960E9421040E94BA00CE01EF
:100BE00001960E945404CE0107960E94540460911D
:100BF000A901CE01603108F0F5C007960E94B60346
:100C0000CE0101960E940104BE01695F7F4FCE01B3
:100C100001960E9421040E94BA00CE0101960E9412
:100C20005404CE0107960E9454046091AA01CE019B
:100C3000603108F0E1C007960E94B603CE0101962C
:100C40000E940104BE01695F7F4FCE0101960E94A0
:100C500021040E94BA00CE0101960E945404CE01E4
:100C600007960E9454046091AB01CE01603108F0F8
:100C7000CDC007960E94B603CE0101960E940104E2
:100C8000BE01695F7F4FCE0101960E9421040E9440
:100C9000BA00CE0101960E945404CE0107960E942C
:100CA00054046091AC01CE01603108F0B9C00796E0
:100CB0000E94B603CE0101960E940104BE01695F45
:100CC0007F4FCE0101960E9421040E94BA00CE01FE
:100CD00001960E945404CE0107960E9454046CE3CE
:100CE00071E086E592E00E946D0362E370E080E0CF
:100CF00090E00E948A022C960FB6F894DEBF0FBED9
:100D0000CDBFDF91CF91089501960E94B603CE0129
:100D100001960E94BA00CE0101963BCE01960E9438
:100D2000B603CE0101960E94BA00CE0101964FCEC5
:100D300001960E94B603CE0101960E94BA00CE0130
:100D4000019663CE01960E94B603CE0101960E94E1
:100D5000BA00CE01019677CE01960E94B603CE016D
:100D600001960E94BA00CE0101968BCE01960E9498
:100D7000B603CE0101960E94BA00CE0101969FCE25
:100D800001960E94B603CE0101960E94BA00CE01E0
:100D90000196B3CE01960E94B603CE0101960E9441
:100DA000BA00CE010196C7CE01960E94B603CE01CD
:100DB00001960E94BA00CE010196DBCE01960E94F8
:100DC000B603CE0101960E94BA00CE010196EFCE85
:100DD00001960E94B603CE0101960E94BA00CE0190
:100DE000019603CF01960E94B603CE0101960E94A0
:100DF000BA00CE01019617CF01960E94B603CE012C
:100E000001960E94BA00CE0101962BCF01960E9456
:100E1000B603CE0101960E94BA00CE0101963FCFE3
:100E200001960E94B603CE0101960E94BA00CE013F
:100E3000019653CF1F920F920FB60F9211242F934A
:100E40003F934F935F936F937F938F939F93AF9352
:100E5000BF93EF93FF9389EB91E00E941401FF9100
:100E6000EF91BF91AF919F918F917F916F915F9122
:100E70004F913F912F910F900FBE0F901F9018959B
:100E80001F920F920FB60F9211242F938F939F935F
:100E9000EF93FF93E091C901F091CA018081E09145
:100EA000CF01F091D00182FD1BC090818091D201D1
:100EB0008F5F8F732091D301821741F0E091D201AF
:100EC000F0E0E754FE4F958F8093D201FF91EF91B0
:100ED0009F918F912F910F900FBE0F901F9018959B
:100EE0008081F4CF1F920F920FB60F9211242F938F
:100EF0003F938F939F93AF93BF9380919101909174
:100F00009201A0919301B09194013091900123E05E
:100F1000230F2D3758F50196A11DB11D2093900187
:100F20008093910190939201A0939301B0939401C7
:100F30008091950190919601A0919701B0919801AF
:100F40000196A11DB11D8093950190939601A093E8
:100F50009701B0939801BF91AF919F918F913F916D
:100F60002F910F900FBE0F901F90189526E8230F1A
:100F70000296A11DB11DD2CF1F920F920FB60F92F4
:100F800011242F933F934F935F936F937F938F938E
:100F90009F93AF93BF93EF93FF93E0919B01F091E9
:100FA0009C01309749F0A685B7858585968D91FF80
:100FB00014C09C918923A1F4FF91EF91BF91AF914F
:100FC0009F918F917F916F915F914F913F912F9161
:100FD0000F900FBE0F901F9018959C91892361F779
:100FE000A389B4899C918589809589238C9386896E
:100FF00097890197F1F7608D718DA685B785558525
:1010000038E020E0CB010197F1F7822F90E0959531
:101010008795282F4C91452309F02068315091F78E
:10102000868D81FD209580919A0190E001968F73C5
:10103000992730919901381799F0A0919A01B0E061
:10104000A05BBE4F2C9380939A01828D938D019764
:10105000F1F7A389B4898C919589892B8C93ACCFB6
:10106000868D8160868FF1CF1092BC011092BB01FA
:1010700088EE93E0A0E0B0E08093BD019093BE01C4
:10108000A093BF01B093C0012CE031E03093BA01CE
:101090002093B90125EC30E03093C6012093C501BF
:1010A00024EC30E03093C8012093C70120EC30E0FD
:1010B0003093CA012093C90121EC30E03093CC0178
:1010C0002093CB0122EC30E03093CE012093CD0170
:1010D00026EC30E03093D0012093CF011092D20162
:1010E0001092D3011092D4011092D501109259029E
:1010F0001092580280935A0290935B02A0935C0274
:10110000B0935D028EE191E0909357028093560276
:1011100010926D0210926C0210926F0210926E0289
:101120001092710210927002109273021092720269
:10113000609174026E7F6D7F60937402669561703A
:1011400081E068278FE00E94F50161E08FE00E9456
:101150002302EDEBF0E0E491E0936602E9EAF0E0CF
:10116000E491F0E0EE0FFF1FE057FF4F859194915F
:10117000909368028093670260E08EE00E942302F1
:101180008091740281FD04C061E08EE00E94F5014F
:101190008EE080936202ECEBF0E0E491E093630276
:1011A000E8EAF0E0E491F0E0EE0FFF1FEA57FF4FAE
:1011B0008591949190936502809364020895789448
:1011C00084B5826084BD84B5816084BD85B582604C
:1011D00085BD85B5816085BD80916E0081608093FD
:1011E0006E00109281008091810082608093810066
:1011F0008091810081608093810080918000816076
:10120000809380008091B10084608093B1008091D0
:10121000B00081608093B00080917A0084608093F8
:101220007A0080917A00826080937A0080917A00BF
:10123000816080937A0080917A00806880937A0040
:101240001092C100E091C901F091CA0182E080834F
:10125000E091C501F091C6011082E091C701F091C3
:10126000C8018FEC80831092D101E091CD01F09103
:10127000CE0186E08083E091CB01F091CC018081AA
:1012800080618083E091CB01F091CC018081886006
:101290008083E091CB01F091CC01808180688083D4
:1012A000E091CB01F091CC0180818F7D80836EE352
:1012B00071E089EB91E00E946D036CE471E089EBD1
:1012C00091E00E946D0310927102109270021092D0
:1012D0006F0210926E0210926D0210926C028DE9F4
:1012E00091E0909373028093720290916202963122
:1012F00008F047C02DEB30E030936D0220936C0274
:101300002BE931E030936F0220936E022CE231E042
:1013100030937102209370022091680084E098302D
:1013200048F031E09E3008F430E081E001C0880FE1
:101330003A95EAF7822B809368002DE630E09830EA
:1013400050F02BE630E09E3030F02CE630E0963165
:1013500010F030E020E030936A0220936902292FD8
:1013600030E0983008F03DC181E001C0880F9A95C7
:10137000EAF780936B028091720290917302019759
:10138000F1F78091700290917102892B49F1E091FF
:101390009B01F0919C0122E0E635F20709F13097BC
:1013A00039F0A389B4899C918589809589238C9390
:1013B000809174028E7F8093740210929A01109231
:1013C000990186E592E090939C0180939B01E091C6
:1013D0006902F0916A02808190916B02892B80836F
:1013E000C5E060E08C2F0E94230261E08C2F0E94F8
:1013F000F501CF5FCB30A9F764EF71E080E090E0BA
:101400000E948A0238EC232E312C40EA442E512CC3
:1014100058E7652E712C88E2882E912CC8EDDFEFFD
:1014200000EB1FEF90E6C92EDD24DA9428E3A22E0C
:10143000BB24BA9489E00E94CC01892B89F484E012
:101440000E9454029093B6018093B50185E00E94FA
:1014500054029093B2018093B10181E080939D0189
:1014600080919D01882309F4AFC086E00E94CC01E1
:10147000E090B701F090B801892B09F0BFC03AE0C5
:10148000E316F1043CF08AE0E81AF108F092B801A2
:10149000E092B70184E00E9454022091B50130919E
:1014A000B601A901425C51408417950708F0B8C005
:1014B000B092B401A092B30185E00E945402209141
:1014C000B1013091B201A901425C514084179507E6
:1014D00008F011C1B092B001A092AF018091B701A4
:1014E0009091B801892B21F41092AE011092AD01B8
:1014F00087E00E94CC01892B09F068C18091AD0181
:101500009091AE0187352FEF92072CF00A979093B8
:10151000AE018093AD0189E00E94CC01892B09F0D6
:1015200065C11092B4011092B3011092B0011092F3
:10153000AF011092AE011092AD011092B80110925D
:10154000B7018EE090E090930101809300019091AB
:10155000B3018091B40190939F018093A001909179
:10156000AF018091B0019093A1018093A20190916D
:10157000AD018091AE019093A3018093A40190915D
:10158000B7018091B8019093A5018093A601809145
:1015900000018093A7011092A80184E68093A9011D
:1015A0001092AA018093AB011092AC01EFE9F1E037
:1015B00080E09191890F2DEA31E02E173F07C9F79E
:1015C00080939E010E945C0480E090E0892B09F4E6
:1015D00031CF0E940001882309F41DCF0E94000032
:1015E0001ACF9E3040F42850310981E001C0880FA5
:1015F0002A95EAF7BECE2E503109F7CF85E00E943A
:10160000CC01892B09F046CF9DE8E916F1040CF0D6
:1016100041CFC7010A969093B8018093B7013ACFA2
:10162000A9014E5551408417950728F4D092B40172
:10163000C092B30141CFA9014A5F510984179507B0
:1016400038F428E83FEF3093B4012093B30134CF4E
:10165000A901465951098417950728F41093B4013C
:101660000093B30129CFA90142535109841795076B
:1016700028F4D093B401C093B3011ECFA9014E5CEE
:101680005F4F8417950728F41092B4011092B301AC
:1016900013CFA9014A565F4F8417950728F49092FB
:1016A000B4018092B30108CFA90146505F4F84175F
:1016B000950738F480E590E09093B4018093B301EE
:1016C000FBCEA901425A5E4F8417950728F4709209
:1016D000B4016092B301F0CE2E533E4F82179307B0
:1016E00028F45092B4014092B301E6CE3092B40196
:1016F0002092B301E1CEA9014E55514084179507C0
:1017000028F4D092B001C092AF01E8CEA9014A5F9F
:1017100051098417950738F428E83FEF3093B0015A
:101720002093AF01DBCEA9014659510984179507D3
:1017300028F41093B0010093AF01D0CEA901425319
:1017400051098417950728F4D093B001C093AF01D5
:10175000C5CEA9014E5C5F4F8417950728F41092FF
:10176000B0011092AF01BACEA9014A565F4F84175B
:10177000950728F49092B0018092AF01AFCEA901F5
:1017800046505F4F8417950738F480E590E09093BA
:10179000B0018093AF01A2CEA901425A5E4F8417D7
:1017A000950728F47092B0016092AF0197CE2E5346
:1017B0003E4F8217930728F45092B0014092AF0138
:1017C0008DCE3092B0012092AF0188CE88E00E9489
:1017D000CC01892B09F09FCE8091AD019091AE0193
:1017E0008A3A91050CF097CE0A9691CE2FE030E020
:1017F0003093010120930001AACE8EE191E09093F5
:1018000057028093560280919B0190919C018655CE
:10181000924071F4E0916902F0916A0290818091A6
:101820006B0280958923808310929C0110929B010A
:101830000895BB27FB015527AA27880F991FAA1FC8
:10184000A41710F0A41B83955051B9F7A05DAA33DB
:1018500008F0A95DA193009779F7B111B1931192A6
:10186000CB010C94330CDC01FC01672F71917723C1
:10187000E1F7329704C07C916D9370836291AE174B
:10188000BF07C8F308952F923F924F925F926F92D5
:101890007F928F929F92AF92BF92CF92DF92EF9200
:1018A000FF920F931F93CF93DF93CDB7DEB7CA1B81
:1018B000DB0B0FB6F894DEBF0FBECDBF09942A88AC
:1018C000398848885F846E847D848C849B84AA8454
:1018D000B984C884DF80EE80FD800C811B81AA81E1
:1018E000B981CE0FD11D0FB6F894DEBF0FBECDBFAC
:1018F000ED01089597FB072E16F4009407D077FDAD
:1019000009D00E948E0C07FC05D03EF4909581957D
:101910009F4F0895709561957F4F0895AA1BBB1B3B
:1019200051E107C0AA1FBB1FA617B70710F0A61BDF
:10193000B70B881F991F5A95A9F780959095BC0100
:10194000CD010895EE0FFF1F0590F491E02D09944D
:101950000F931F93CF93DF938230910510F482E0B1
:1019600090E0E0917702F091780230E020E0B0E082
:10197000A0E0309799F42115310509F44AC0281BDD
:10198000390B24303105D8F58A819B8161157105A9
:1019900089F1FB0193838283FE0111C04081518153
:1019A0000281138148175907E0F04817590799F445
:1019B000109761F012960C93129713961C9332961F
:1019C000CF01DF91CF911F910F910895009377027E
:1019D00010937802F4CF2115310551F042175307C7
:1019E00038F0A901DB019A01BD01DF01F801C1CF87
:1019F000EF01F9CF9093780280937702CDCFFE016B
:101A0000E20FF31F81939193225031093983288388
:101A1000D7CF2091750230917602232B41F420918B
:101A200004013091050130937602209375022091D4
:101A30000201309103012115310541F42DB73EB764
:101A40004091060150910701241B350BE09175026E
:101A5000F0917602E217F307A0F42E1B3F0B281734
:101A6000390778F0AC014E5F5F4F2417350748F017
:101A70004E0F5F1F509376024093750281939193AE
:101A80009FCFF0E0E0E09CCFCF93DF930097E9F0A9
:101A9000FC01329713821282A0917702B0917802F2
:101AA000ED0130E020E01097A1F420813181820F18
:101AB000931F20917502309176022817390709F09B
:101AC00061C0F0937602E0937502DF91CF910895A3
:101AD000EA01CE17DF07E8F54A815B819E014115D7
:101AE0005105B1F7E901FB83EA8349915991C40F8C
:101AF000D51FEC17FD0761F4808191810296840F58
:101B0000951FE90199838883828193819B838A83CE
:101B1000F0E0E0E012968D919C9113970097B9F553
:101B20002D913C911197CD010296820F931F209128
:101B30007502309176022817390739F6309751F53A
:101B40001092780210927702B0937602A0937502F9
:101B5000BCCFD383C28340815181840F951FC817A6
:101B6000D90761F44E5F5F4F88819981480F591FF3
:101B7000518340838A819B81938382832115310520
:101B800009F0B0CFF0937802E09377029ECFFD0189
:101B9000DC01C0CF13821282D7CFB0E0A0E0E3ED2A
:101BA000FDE00C94450C8C01009751F4CB010E9490
:101BB000A80C8C01C801CDB7DEB7E0E10C94610C34
:101BC000FC01E60FF71F9C0122503109E217F307D1
:101BD00008F49DC0D901CD91DC911197C617D707A4
:101BE00098F0C530D10530F3CE01049786179707DA
:101BF00008F3C61BD70B2297C193D1936D937C93A7
:101C0000CF010E94440DD6CF5B01AC1ABD0A4C0136
:101C10008C0E9D1EA0917702B0917802512C412C20
:101C2000F12CE12C109731F580917502909176029C
:101C30008815990509F05CC04616570608F058C08B
:101C40008091020190910301009741F48DB79EB7F6
:101C50004091060150910701841B950BE817F90785
:101C600008F055C0F0937602E0937502F901718394
:101C70006083A0CF8D919C91119712966C901297D2
:101C800013967C901397A815B90559F56C0142E09D
:101C9000C40ED11CCA14DB0420F1AC014A195B0943
:101CA000DA011296159780F0628273825183408325
:101CB000D9016D937C93E114F10471F0D70113966F
:101CC000FC93EE93129776CF22968C0F9D1FF9010D
:101CD00091838083F301EFCFF0937802E093770252
:101CE00069CF4816590608F42C017D01D3019ACF1B
:101CF000CB010E94A80C7C01009749F0AE01B8010D
:101D00000E948A0EC8010E94440D870153CF10E043
:101D100000E050CFFB01DC0102C001900D92415068
:101D20005040D8F70895FB01DC0101900D9200208E
:101D3000E1F7089510E0C2E6D0E004C0FE010E9481
:0E1D4000A20C2196C336D107C9F7F894FFCF45
:101D4E000F000000790280000000000036018D00B7
:101D5E00C3008301F400D200E60000000000D502AB
:101D6E008D006A03D40231034903BC023000617452
:101D7E002B77726974656830303064000D005465DD
:101D8E007374205374617274656421000D0A00002F
:00000001FF
